{
  "contractName": "Voting",
  "abi": [
    {
      "inputs": [],
      "stateMutability": "nonpayable",
      "type": "constructor"
    },
    {
      "inputs": [
        {
          "internalType": "uint256",
          "name": "",
          "type": "uint256"
        }
      ],
      "name": "candidates",
      "outputs": [
        {
          "internalType": "uint256",
          "name": "id",
          "type": "uint256"
        },
        {
          "internalType": "string",
          "name": "name",
          "type": "string"
        },
        {
          "internalType": "uint256",
          "name": "votes",
          "type": "uint256"
        }
      ],
      "stateMutability": "view",
      "type": "function",
      "constant": true
    },
    {
      "inputs": [],
      "name": "totalVotes",
      "outputs": [
        {
          "internalType": "uint256",
          "name": "",
          "type": "uint256"
        }
      ],
      "stateMutability": "view",
      "type": "function",
      "constant": true
    },
    {
      "inputs": [
        {
          "internalType": "string",
          "name": "name",
          "type": "string"
        }
      ],
      "name": "createCandidate",
      "outputs": [],
      "stateMutability": "nonpayable",
      "type": "function"
    },
    {
      "inputs": [
        {
          "internalType": "uint256",
          "name": "candidateId",
          "type": "uint256"
        }
      ],
      "name": "vote",
      "outputs": [],
      "stateMutability": "nonpayable",
      "type": "function"
    }
  ],
  "bytecode": "0x608060405260008055600060015534801561001957600080fd5b5061005e6040518060400160405280600481526020017f4c756c61000000000000000000000000000000000000000000000000000000008152506100eb60201b60201c565b6100a26040518060400160405280600981526020017f426f6c736f6e61726f00000000000000000000000000000000000000000000008152506100eb60201b60201c565b6100e66040518060400160405280600e81526020017f44616e696c6f2047656e74696c690000000000000000000000000000000000008152506100eb60201b60201c565b6102f3565b600160008154809291906100fe90610249565b919050555060405180606001604052806001548152602001828152602001600081525060026000600154815260200190815260200160002060008201518160000155602082015181600101908051906020019061015c92919061016d565b506040820151816002015590505050565b828054610179906102c1565b90600052602060002090601f01602090048101928261019b57600085556101e2565b82601f106101b457805160ff19168380011785556101e2565b828001600101855582156101e2579182015b828111156101e15782518255916020019190600101906101c6565b5b5090506101ef91906101f3565b5090565b5b8082111561020c5760008160009055506001016101f4565b5090565b7f4e487b7100000000000000000000000000000000000000000000000000000000600052601160045260246000fd5b6000819050919050565b60006102548261023f565b91507fffffffffffffffffffffffffffffffffffffffffffffffffffffffffffffffff82141561028757610286610210565b5b600182019050919050565b7f4e487b7100000000000000000000000000000000000000000000000000000000600052602260045260246000fd5b600060028204905060018216806102d957607f821691505b602082108114156102ed576102ec610292565b5b50919050565b610725806103026000396000f3fe608060405234801561001057600080fd5b506004361061004c5760003560e01c80630121b93f146100515780630d15fd771461006d5780633477ee2e1461008b5780635fba7a56146100bd575b600080fd5b61006b6004803603810190610066919061036a565b6100d9565b005b610075610143565b60405161008291906103a6565b60405180910390f35b6100a560048036038101906100a0919061036a565b610149565b6040516100b49392919061045a565b60405180910390f35b6100d760048036038101906100d291906105cd565b6101fb565b005b6000600260008381526020019081526020016000206000015414156100fd57600080fd5b60026000828152602001908152602001600020600201600081548092919061012490610645565b919050555060008081548092919061013b90610645565b919050555050565b60005481565b6002602052806000526040600020600091509050806000015490806001018054610172906106bd565b80601f016020809104026020016040519081016040528092919081815260200182805461019e906106bd565b80156101eb5780601f106101c0576101008083540402835291602001916101eb565b820191906000526020600020905b8154815290600101906020018083116101ce57829003601f168201915b5050505050908060020154905083565b6001600081548092919061020e90610645565b919050555060405180606001604052806001548152602001828152602001600081525060026000600154815260200190815260200160002060008201518160000155602082015181600101908051906020019061026c92919061027d565b506040820151816002015590505050565b828054610289906106bd565b90600052602060002090601f0160209004810192826102ab57600085556102f2565b82601f106102c457805160ff19168380011785556102f2565b828001600101855582156102f2579182015b828111156102f15782518255916020019190600101906102d6565b5b5090506102ff9190610303565b5090565b5b8082111561031c576000816000905550600101610304565b5090565b6000604051905090565b600080fd5b600080fd5b6000819050919050565b61034781610334565b811461035257600080fd5b50565b6000813590506103648161033e565b92915050565b6000602082840312156103805761037f61032a565b5b600061038e84828501610355565b91505092915050565b6103a081610334565b82525050565b60006020820190506103bb6000830184610397565b92915050565b600081519050919050565b600082825260208201905092915050565b60005b838110156103fb5780820151818401526020810190506103e0565b8381111561040a576000848401525b50505050565b6000601f19601f8301169050919050565b600061042c826103c1565b61043681856103cc565b93506104468185602086016103dd565b61044f81610410565b840191505092915050565b600060608201905061046f6000830186610397565b81810360208301526104818185610421565b90506104906040830184610397565b949350505050565b600080fd5b600080fd5b7f4e487b7100000000000000000000000000000000000000000000000000000000600052604160045260246000fd5b6104da82610410565b810181811067ffffffffffffffff821117156104f9576104f86104a2565b5b80604052505050565b600061050c610320565b905061051882826104d1565b919050565b600067ffffffffffffffff821115610538576105376104a2565b5b61054182610410565b9050602081019050919050565b82818337600083830152505050565b600061057061056b8461051d565b610502565b90508281526020810184848401111561058c5761058b61049d565b5b61059784828561054e565b509392505050565b600082601f8301126105b4576105b3610498565b5b81356105c484826020860161055d565b91505092915050565b6000602082840312156105e3576105e261032a565b5b600082013567ffffffffffffffff8111156106015761060061032f565b5b61060d8482850161059f565b91505092915050565b7f4e487b7100000000000000000000000000000000000000000000000000000000600052601160045260246000fd5b600061065082610334565b91507fffffffffffffffffffffffffffffffffffffffffffffffffffffffffffffffff82141561068357610682610616565b5b600182019050919050565b7f4e487b7100000000000000000000000000000000000000000000000000000000600052602260045260246000fd5b600060028204905060018216806106d557607f821691505b602082108114156106e9576106e861068e565b5b5091905056fea2646970667358221220b96a2df7fcdf598687c0148ac4aeb4d33dfa8879c0b89a7faf8afe3591d002bd64736f6c63430008090033",
  "immutableReferences": {},
  "source": "pragma solidity ^0.8.0;\r\n\r\ncontract Voting {\r\n  uint256 public totalVotes = 0;\r\n  uint256 lastCandidateId = 0;\r\n\r\n  // Creates a Candidate structure like interface\r\n  struct Candidate {\r\n    uint256 id;\r\n    string name;\r\n    uint256 votes;\r\n  }\r\n  // Define Array of candidates\r\n  mapping(uint256 => Candidate) public candidates;\r\n\r\n  // Create a constructor for the first time to generate candidates by default\r\n  constructor() public {\r\n    // Create a 3 new candidates\r\n    createCandidate(\"Lula\");\r\n    createCandidate(\"Bolsonaro\");\r\n    createCandidate(\"Danilo Gentili\");\r\n  }\r\n\r\n  // Creates a function that creates a new candidate\r\n  function createCandidate(string memory name) public {\r\n    // Increment number of candidate id to generate e new one\r\n    lastCandidateId++;\r\n    // Create a new candidate\r\n    candidates[lastCandidateId] = Candidate(lastCandidateId, name, 0);\r\n  }\r\n\r\n  // Creates a function that votes for a candidate\r\n  function vote(uint256 candidateId) public {\r\n    // Check if candidate exists\r\n    require(candidates[candidateId].id != 0);\r\n    // Increment votes\r\n    candidates[candidateId].votes++;\r\n    // Increment total votes\r\n    totalVotes++;\r\n  }\r\n}\r\n",
  "sourcePath": "A:\\Projetos\\node\\blockchain-voting-system\\contracts\\Voting.sol",
  "compiler": {
    "name": "solc",
    "version": "0.8.9+commit.e5eed63a.Emscripten.clang"
  },
  "schemaVersion": "3.4.3",
  "updatedAt": "2021-10-24T05:06:16.817Z",
  "networkType": "ethereum",
  "devdoc": {
    "kind": "dev",
    "methods": {},
    "version": 1
  },
  "userdoc": {
    "kind": "user",
    "methods": {},
    "version": 1
  }
}